{
  "contractName": "NFTMarket",
  "abi": [
    {
      "inputs": [],
      "stateMutability": "nonpayable",
      "type": "constructor"
    },
    {
      "anonymous": false,
      "inputs": [
        {
          "indexed": true,
          "internalType": "address",
          "name": "owner",
          "type": "address"
        },
        {
          "indexed": true,
          "internalType": "address",
          "name": "approved",
          "type": "address"
        },
        {
          "indexed": true,
          "internalType": "uint256",
          "name": "tokenId",
          "type": "uint256"
        }
      ],
      "name": "Approval",
      "type": "event"
    },
    {
      "anonymous": false,
      "inputs": [
        {
          "indexed": true,
          "internalType": "address",
          "name": "owner",
          "type": "address"
        },
        {
          "indexed": true,
          "internalType": "address",
          "name": "operator",
          "type": "address"
        },
        {
          "indexed": false,
          "internalType": "bool",
          "name": "approved",
          "type": "bool"
        }
      ],
      "name": "ApprovalForAll",
      "type": "event"
    },
    {
      "anonymous": false,
      "inputs": [
        {
          "indexed": true,
          "internalType": "address",
          "name": "previousOwner",
          "type": "address"
        },
        {
          "indexed": true,
          "internalType": "address",
          "name": "newOwner",
          "type": "address"
        }
      ],
      "name": "OwnershipTransferred",
      "type": "event"
    },
    {
      "anonymous": false,
      "inputs": [
        {
          "indexed": true,
          "internalType": "address",
          "name": "from",
          "type": "address"
        },
        {
          "indexed": true,
          "internalType": "address",
          "name": "to",
          "type": "address"
        },
        {
          "indexed": true,
          "internalType": "uint256",
          "name": "tokenId",
          "type": "uint256"
        }
      ],
      "name": "Transfer",
      "type": "event"
    },
    {
      "inputs": [
        {
          "internalType": "uint256",
          "name": "",
          "type": "uint256"
        }
      ],
      "name": "allNfts",
      "outputs": [
        {
          "internalType": "uint256",
          "name": "price",
          "type": "uint256"
        },
        {
          "internalType": "uint256",
          "name": "tokedId",
          "type": "uint256"
        },
        {
          "internalType": "address",
          "name": "creator",
          "type": "address"
        },
        {
          "internalType": "address",
          "name": "currentOwner",
          "type": "address"
        },
        {
          "internalType": "bool",
          "name": "isListed",
          "type": "bool"
        }
      ],
      "stateMutability": "view",
      "type": "function",
      "constant": true
    },
    {
      "inputs": [
        {
          "internalType": "address",
          "name": "to",
          "type": "address"
        },
        {
          "internalType": "uint256",
          "name": "tokenId",
          "type": "uint256"
        }
      ],
      "name": "approve",
      "outputs": [],
      "stateMutability": "nonpayable",
      "type": "function"
    },
    {
      "inputs": [
        {
          "internalType": "address",
          "name": "owner",
          "type": "address"
        }
      ],
      "name": "balanceOf",
      "outputs": [
        {
          "internalType": "uint256",
          "name": "",
          "type": "uint256"
        }
      ],
      "stateMutability": "view",
      "type": "function",
      "constant": true
    },
    {
      "inputs": [
        {
          "internalType": "uint256",
          "name": "tokenId",
          "type": "uint256"
        }
      ],
      "name": "getApproved",
      "outputs": [
        {
          "internalType": "address",
          "name": "",
          "type": "address"
        }
      ],
      "stateMutability": "view",
      "type": "function",
      "constant": true
    },
    {
      "inputs": [
        {
          "internalType": "address",
          "name": "owner",
          "type": "address"
        },
        {
          "internalType": "address",
          "name": "operator",
          "type": "address"
        }
      ],
      "name": "isApprovedForAll",
      "outputs": [
        {
          "internalType": "bool",
          "name": "",
          "type": "bool"
        }
      ],
      "stateMutability": "view",
      "type": "function",
      "constant": true
    },
    {
      "inputs": [],
      "name": "name",
      "outputs": [
        {
          "internalType": "string",
          "name": "",
          "type": "string"
        }
      ],
      "stateMutability": "view",
      "type": "function",
      "constant": true
    },
    {
      "inputs": [],
      "name": "owner",
      "outputs": [
        {
          "internalType": "address",
          "name": "",
          "type": "address"
        }
      ],
      "stateMutability": "view",
      "type": "function",
      "constant": true
    },
    {
      "inputs": [
        {
          "internalType": "uint256",
          "name": "tokenId",
          "type": "uint256"
        }
      ],
      "name": "ownerOf",
      "outputs": [
        {
          "internalType": "address",
          "name": "",
          "type": "address"
        }
      ],
      "stateMutability": "view",
      "type": "function",
      "constant": true
    },
    {
      "inputs": [],
      "name": "renounceOwnership",
      "outputs": [],
      "stateMutability": "nonpayable",
      "type": "function"
    },
    {
      "inputs": [
        {
          "internalType": "address",
          "name": "from",
          "type": "address"
        },
        {
          "internalType": "address",
          "name": "to",
          "type": "address"
        },
        {
          "internalType": "uint256",
          "name": "tokenId",
          "type": "uint256"
        }
      ],
      "name": "safeTransferFrom",
      "outputs": [],
      "stateMutability": "nonpayable",
      "type": "function"
    },
    {
      "inputs": [
        {
          "internalType": "address",
          "name": "from",
          "type": "address"
        },
        {
          "internalType": "address",
          "name": "to",
          "type": "address"
        },
        {
          "internalType": "uint256",
          "name": "tokenId",
          "type": "uint256"
        },
        {
          "internalType": "bytes",
          "name": "data",
          "type": "bytes"
        }
      ],
      "name": "safeTransferFrom",
      "outputs": [],
      "stateMutability": "nonpayable",
      "type": "function"
    },
    {
      "inputs": [
        {
          "internalType": "address",
          "name": "operator",
          "type": "address"
        },
        {
          "internalType": "bool",
          "name": "approved",
          "type": "bool"
        }
      ],
      "name": "setApprovalForAll",
      "outputs": [],
      "stateMutability": "nonpayable",
      "type": "function"
    },
    {
      "inputs": [
        {
          "internalType": "bytes4",
          "name": "interfaceId",
          "type": "bytes4"
        }
      ],
      "name": "supportsInterface",
      "outputs": [
        {
          "internalType": "bool",
          "name": "",
          "type": "bool"
        }
      ],
      "stateMutability": "view",
      "type": "function",
      "constant": true
    },
    {
      "inputs": [],
      "name": "symbol",
      "outputs": [
        {
          "internalType": "string",
          "name": "",
          "type": "string"
        }
      ],
      "stateMutability": "view",
      "type": "function",
      "constant": true
    },
    {
      "inputs": [
        {
          "internalType": "uint256",
          "name": "tokenId",
          "type": "uint256"
        }
      ],
      "name": "tokenURI",
      "outputs": [
        {
          "internalType": "string",
          "name": "",
          "type": "string"
        }
      ],
      "stateMutability": "view",
      "type": "function",
      "constant": true
    },
    {
      "inputs": [
        {
          "internalType": "address",
          "name": "from",
          "type": "address"
        },
        {
          "internalType": "address",
          "name": "to",
          "type": "address"
        },
        {
          "internalType": "uint256",
          "name": "tokenId",
          "type": "uint256"
        }
      ],
      "name": "transferFrom",
      "outputs": [],
      "stateMutability": "nonpayable",
      "type": "function"
    },
    {
      "inputs": [
        {
          "internalType": "address",
          "name": "newOwner",
          "type": "address"
        }
      ],
      "name": "transferOwnership",
      "outputs": [],
      "stateMutability": "nonpayable",
      "type": "function"
    },
    {
      "inputs": [
        {
          "internalType": "string",
          "name": "tokenURIData",
          "type": "string"
        }
      ],
      "name": "NftExist",
      "outputs": [
        {
          "internalType": "bool",
          "name": "",
          "type": "bool"
        }
      ],
      "stateMutability": "view",
      "type": "function",
      "constant": true
    },
    {
      "inputs": [
        {
          "internalType": "uint256",
          "name": "tokenId",
          "type": "uint256"
        }
      ],
      "name": "NFTPrice",
      "outputs": [
        {
          "internalType": "uint256",
          "name": "",
          "type": "uint256"
        }
      ],
      "stateMutability": "view",
      "type": "function",
      "constant": true
    },
    {
      "inputs": [
        {
          "internalType": "uint256",
          "name": "price",
          "type": "uint256"
        },
        {
          "internalType": "string",
          "name": "tokenURIData",
          "type": "string"
        }
      ],
      "name": "mintToken",
      "outputs": [],
      "stateMutability": "payable",
      "type": "function",
      "payable": true
    },
    {
      "inputs": [
        {
          "internalType": "uint256",
          "name": "NFTId",
          "type": "uint256"
        }
      ],
      "name": "getNftById",
      "outputs": [
        {
          "components": [
            {
              "internalType": "uint256",
              "name": "price",
              "type": "uint256"
            },
            {
              "internalType": "uint256",
              "name": "tokedId",
              "type": "uint256"
            },
            {
              "internalType": "address",
              "name": "creator",
              "type": "address"
            },
            {
              "internalType": "address",
              "name": "currentOwner",
              "type": "address"
            },
            {
              "internalType": "bool",
              "name": "isListed",
              "type": "bool"
            }
          ],
          "internalType": "struct NFTMarket.NFTItem",
          "name": "",
          "type": "tuple"
        }
      ],
      "stateMutability": "view",
      "type": "function",
      "constant": true
    },
    {
      "inputs": [
        {
          "internalType": "uint256",
          "name": "NFTId",
          "type": "uint256"
        }
      ],
      "name": "getNFTindex",
      "outputs": [
        {
          "internalType": "uint256",
          "name": "",
          "type": "uint256"
        }
      ],
      "stateMutability": "view",
      "type": "function",
      "constant": true
    },
    {
      "inputs": [],
      "name": "getAllNfts",
      "outputs": [
        {
          "components": [
            {
              "internalType": "uint256",
              "name": "price",
              "type": "uint256"
            },
            {
              "internalType": "uint256",
              "name": "tokedId",
              "type": "uint256"
            },
            {
              "internalType": "address",
              "name": "creator",
              "type": "address"
            },
            {
              "internalType": "address",
              "name": "currentOwner",
              "type": "address"
            },
            {
              "internalType": "bool",
              "name": "isListed",
              "type": "bool"
            }
          ],
          "internalType": "struct NFTMarket.NFTItem[]",
          "name": "",
          "type": "tuple[]"
        }
      ],
      "stateMutability": "view",
      "type": "function",
      "constant": true
    },
    {
      "inputs": [
        {
          "internalType": "uint256",
          "name": "tokenId",
          "type": "uint256"
        }
      ],
      "name": "buyNFT",
      "outputs": [],
      "stateMutability": "payable",
      "type": "function",
      "payable": true
    },
    {
      "inputs": [],
      "name": "totalSupply",
      "outputs": [
        {
          "internalType": "uint256",
          "name": "",
          "type": "uint256"
        }
      ],
      "stateMutability": "view",
      "type": "function",
      "constant": true
    },
    {
      "inputs": [
        {
          "internalType": "address",
          "name": "to",
          "type": "address"
        },
        {
          "internalType": "uint256",
          "name": "tokenId",
          "type": "uint256"
        }
      ],
      "name": "AddTokenToOwner",
      "outputs": [
        {
          "internalType": "uint256",
          "name": "",
          "type": "uint256"
        }
      ],
      "stateMutability": "nonpayable",
      "type": "function"
    },
    {
      "inputs": [],
      "name": "getOwnedTokens",
      "outputs": [
        {
          "components": [
            {
              "internalType": "uint256",
              "name": "price",
              "type": "uint256"
            },
            {
              "internalType": "uint256",
              "name": "tokedId",
              "type": "uint256"
            },
            {
              "internalType": "address",
              "name": "creator",
              "type": "address"
            },
            {
              "internalType": "address",
              "name": "currentOwner",
              "type": "address"
            },
            {
              "internalType": "bool",
              "name": "isListed",
              "type": "bool"
            }
          ],
          "internalType": "struct NFTMarket.NFTItem[]",
          "name": "",
          "type": "tuple[]"
        }
      ],
      "stateMutability": "view",
      "type": "function",
      "constant": true
    },
    {
      "inputs": [],
      "name": "getOwnedNFTIndexs",
      "outputs": [
        {
          "internalType": "uint256[]",
          "name": "",
          "type": "uint256[]"
        }
      ],
      "stateMutability": "view",
      "type": "function",
      "constant": true
    },
    {
      "inputs": [
        {
          "internalType": "uint256",
          "name": "tokenId",
          "type": "uint256"
        }
      ],
      "name": "burnToken",
      "outputs": [],
      "stateMutability": "nonpayable",
      "type": "function"
    },
    {
      "inputs": [
        {
          "internalType": "uint256",
          "name": "newListingPrice",
          "type": "uint256"
        }
      ],
      "name": "setListingPrice",
      "outputs": [],
      "stateMutability": "nonpayable",
      "type": "function"
    },
    {
      "inputs": [
        {
          "internalType": "uint256",
          "name": "tokenId",
          "type": "uint256"
        },
        {
          "internalType": "uint256",
          "name": "newPrice",
          "type": "uint256"
        }
      ],
      "name": "listNFT",
      "outputs": [],
      "stateMutability": "payable",
      "type": "function",
      "payable": true
    },
    {
      "inputs": [
        {
          "internalType": "uint256",
          "name": "tokenId",
          "type": "uint256"
        }
      ],
      "name": "unlistNft",
      "outputs": [],
      "stateMutability": "nonpayable",
      "type": "function"
    },
    {
      "inputs": [
        {
          "internalType": "uint256",
          "name": "tokenId",
          "type": "uint256"
        }
      ],
      "name": "testing",
      "outputs": [
        {
          "internalType": "uint256",
          "name": "",
          "type": "uint256"
        }
      ],
      "stateMutability": "view",
      "type": "function",
      "constant": true
    },
    {
      "inputs": [],
      "name": "getNftMintingFee",
      "outputs": [
        {
          "internalType": "uint256",
          "name": "",
          "type": "uint256"
        }
      ],
      "stateMutability": "view",
      "type": "function",
      "constant": true
    }
  ],
  "bytecode": "0x60806040526658d15e176280006010553480156200001c57600080fd5b506040518060400160405280600d81526020017f6f63746f437265617475726573000000000000000000000000000000000000008152506040518060400160405280600481526020017f4f43544b000000000000000000000000000000000000000000000000000000008152508160009080519060200190620000a1929190620001b1565b508060019080519060200190620000ba929190620001b1565b505050620000dd620000d1620000e360201b60201c565b620000eb60201b60201c565b620002c5565b600033905090565b6000600760009054906101000a900473ffffffffffffffffffffffffffffffffffffffff16905081600760006101000a81548173ffffffffffffffffffffffffffffffffffffffff021916908373ffffffffffffffffffffffffffffffffffffffff1602179055508173ffffffffffffffffffffffffffffffffffffffff168173ffffffffffffffffffffffffffffffffffffffff167f8be0079c531659141344cd1fd0a4f28419497f9722a3daafe3b4186f6b6457e060405160405180910390a35050565b828054620001bf9062000290565b90600052602060002090601f016020900481019282620001e357600085556200022f565b82601f10620001fe57805160ff19168380011785556200022f565b828001600101855582156200022f579182015b828111156200022e57825182559160200191906001019062000211565b5b5090506200023e919062000242565b5090565b5b808211156200025d57600081600090555060010162000243565b5090565b7f4e487b7100000000000000000000000000000000000000000000000000000000600052602260045260246000fd5b60006002820490506001821680620002a957607f821691505b602082108103620002bf57620002be62000261565b5b50919050565b6155d780620002d56000396000f3fe6080604052600436106101f95760003560e01c80637b47ec1a1161010d578063a22cb465116100a0578063c87b56dd1161006f578063c87b56dd14610744578063cc79fc2314610781578063d3a1f501146107be578063e985e9c5146107e9578063f2fde38b14610826576101f9565b8063a22cb46514610674578063b88d4fde1461069d578063bc26c61c146106c6578063c529de6514610703576101f9565b806394383f14116100dc57806394383f14146105c757806395a81b8f146105e357806395d89b41146106205780639e75689c1461064b576101f9565b80637b47ec1a1461050d5780637c726b6914610536578063878e9ef41461055f5780638da5cb5b1461059c576101f9565b8063495bc4f5116101905780636c30f7651161015f5780636c30f7651461043557806370a0823114610472578063715018a6146104af578063732e8d73146104c6578063752312a9146104f1576101f9565b8063495bc4f51461037457806351ed8288146103b157806360820d80146103cd5780636352211e146103f8576101f9565b806318160ddd116101cc57806318160ddd146102cc57806323892380146102f757806323b872dd1461032257806342842e0e1461034b576101f9565b806301ffc9a7146101fe57806306fdde031461023b578063081812fc14610266578063095ea7b3146102a3575b600080fd5b34801561020a57600080fd5b5061022560048036038101906102209190613bac565b61084f565b6040516102329190613bf4565b60405180910390f35b34801561024757600080fd5b50610250610931565b60405161025d9190613ca8565b60405180910390f35b34801561027257600080fd5b5061028d60048036038101906102889190613d00565b6109c3565b60405161029a9190613d6e565b60405180910390f35b3480156102af57600080fd5b506102ca60048036038101906102c59190613db5565b610a09565b005b3480156102d857600080fd5b506102e1610b20565b6040516102ee9190613e04565b60405180910390f35b34801561030357600080fd5b5061030c610b2d565b6040516103199190613edd565b60405180910390f35b34801561032e57600080fd5b5061034960048036038101906103449190613eff565b610c77565b005b34801561035757600080fd5b50610372600480360381019061036d9190613eff565b610cd7565b005b34801561038057600080fd5b5061039b60048036038101906103969190613d00565b610cf7565b6040516103a89190613e04565b60405180910390f35b6103cb60048036038101906103c69190613d00565b610d14565b005b3480156103d957600080fd5b506103e2610e52565b6040516103ef9190614087565b60405180910390f35b34801561040457600080fd5b5061041f600480360381019061041a9190613d00565b6110e0565b60405161042c9190613d6e565b60405180910390f35b34801561044157600080fd5b5061045c60048036038101906104579190613d00565b611166565b6040516104699190613e04565b60405180910390f35b34801561047e57600080fd5b50610499600480360381019061049491906140a9565b611188565b6040516104a69190613e04565b60405180910390f35b3480156104bb57600080fd5b506104c461123f565b005b3480156104d257600080fd5b506104db611253565b6040516104e89190614087565b60405180910390f35b61050b6004803603810190610506919061420b565b61138d565b005b34801561051957600080fd5b50610534600480360381019061052f9190613d00565b611471565b005b34801561054257600080fd5b5061055d60048036038101906105589190613d00565b6114ff565b005b34801561056b57600080fd5b5061058660048036038101906105819190613db5565b611554565b6040516105939190613e04565b60405180910390f35b3480156105a857600080fd5b506105b16115d9565b6040516105be9190613d6e565b60405180910390f35b6105e160048036038101906105dc9190614267565b611603565b005b3480156105ef57600080fd5b5061060a60048036038101906106059190613d00565b61179d565b604051610617919061430f565b60405180910390f35b34801561062c57600080fd5b506106356118f1565b6040516106429190613ca8565b60405180910390f35b34801561065757600080fd5b50610672600480360381019061066d9190613d00565b611983565b005b34801561068057600080fd5b5061069b60048036038101906106969190614356565b611a5f565b005b3480156106a957600080fd5b506106c460048036038101906106bf9190614437565b611a75565b005b3480156106d257600080fd5b506106ed60048036038101906106e89190613d00565b611ad7565b6040516106fa9190613e04565b60405180910390f35b34801561070f57600080fd5b5061072a60048036038101906107259190613d00565b611af7565b60405161073b9594939291906144ba565b60405180910390f35b34801561075057600080fd5b5061076b60048036038101906107669190613d00565b611b8a565b6040516107789190613ca8565b60405180910390f35b34801561078d57600080fd5b506107a860048036038101906107a3919061450d565b611c9c565b6040516107b59190613bf4565b60405180910390f35b3480156107ca57600080fd5b506107d3611cd8565b6040516107e09190613e04565b60405180910390f35b3480156107f557600080fd5b50610810600480360381019061080b9190614556565b611ce7565b60405161081d9190613bf4565b60405180910390f35b34801561083257600080fd5b5061084d600480360381019061084891906140a9565b611d7b565b005b60007f80ac58cd000000000000000000000000000000000000000000000000000000007bffffffffffffffffffffffffffffffffffffffffffffffffffffffff1916827bffffffffffffffffffffffffffffffffffffffffffffffffffffffff1916148061091a57507f5b5e139f000000000000000000000000000000000000000000000000000000007bffffffffffffffffffffffffffffffffffffffffffffffffffffffff1916827bffffffffffffffffffffffffffffffffffffffffffffffffffffffff1916145b8061092a575061092982611dfe565b5b9050919050565b606060008054610940906145c5565b80601f016020809104026020016040519081016040528092919081815260200182805461096c906145c5565b80156109b95780601f1061098e576101008083540402835291602001916109b9565b820191906000526020600020905b81548152906001019060200180831161099c57829003601f168201915b5050505050905090565b60006109ce82611e68565b6004600083815260200190815260200160002060009054906101000a900473ffffffffffffffffffffffffffffffffffffffff169050919050565b6000610a14826110e0565b90508073ffffffffffffffffffffffffffffffffffffffff168373ffffffffffffffffffffffffffffffffffffffff1603610a84576040517f08c379a0000000000000000000000000000000000000000000000000000000008152600401610a7b90614668565b60405180910390fd5b8073ffffffffffffffffffffffffffffffffffffffff16610aa3611eb3565b73ffffffffffffffffffffffffffffffffffffffff161480610ad25750610ad181610acc611eb3565b611ce7565b5b610b11576040517f08c379a0000000000000000000000000000000000000000000000000000000008152600401610b08906146fa565b60405180910390fd5b610b1b8383611ebb565b505050565b6000600f80549050905090565b60606000610b3a33611188565b9050600033905060008211610b84576040517f08c379a0000000000000000000000000000000000000000000000000000000008152600401610b7b90614766565b60405180910390fd5b6000610b8f82611188565b905060008167ffffffffffffffff811115610bad57610bac6140e0565b5b604051908082528060200260200182016040528015610bdb5781602001602082028036833780820191505090505b50905060005b82811015610c6c57600d60003373ffffffffffffffffffffffffffffffffffffffff1673ffffffffffffffffffffffffffffffffffffffff168152602001908152602001600020600082815260200190815260200160002054828281518110610c4d57610c4c614786565b5b6020026020010181815250508080610c64906147e4565b915050610be1565b508094505050505090565b610c88610c82611eb3565b82611f74565b610cc7576040517f08c379a0000000000000000000000000000000000000000000000000000000008152600401610cbe9061489e565b60405180910390fd5b610cd2838383612009565b505050565b610cf283838360405180602001604052806000815250611a75565b505050565b6000600b6000838152602001908152602001600020549050919050565b6000610d1f82612302565b90503373ffffffffffffffffffffffffffffffffffffffff168173ffffffffffffffffffffffffffffffffffffffff1603610d8f576040517f08c379a0000000000000000000000000000000000000000000000000000000008152600401610d869061490a565b60405180910390fd5b600a6000838152602001908152602001600020600001543414610de7576040517f08c379a0000000000000000000000000000000000000000000000000000000008152600401610dde90614976565b60405180910390fd5b610df2813384612009565b610dfd81338461233f565b610e0760086129ad565b8073ffffffffffffffffffffffffffffffffffffffff166108fc349081150290604051600060405180830381858888f19350505050158015610e4d573d6000803e3d6000fd5b505050565b606060003390506000806000610e6784611188565b11610ea7576040517f08c379a0000000000000000000000000000000000000000000000000000000008152600401610e9e90614766565b60405180910390fd5b6000610eb284611188565b905060008167ffffffffffffffff811115610ed057610ecf6140e0565b5b604051908082528060200260200182016040528015610f0957816020015b610ef6613a40565b815260200190600190039081610eee5790505b5090505b818410156110d5578473ffffffffffffffffffffffffffffffffffffffff16600f8481548110610f4057610f3f614786565b5b906000526020600020906004020160030160009054906101000a900473ffffffffffffffffffffffffffffffffffffffff1673ffffffffffffffffffffffffffffffffffffffff16036110c257600f8381548110610fa157610fa0614786565b5b90600052602060002090600402016040518060a001604052908160008201548152602001600182015481526020016002820160009054906101000a900473ffffffffffffffffffffffffffffffffffffffff1673ffffffffffffffffffffffffffffffffffffffff1673ffffffffffffffffffffffffffffffffffffffff1681526020016003820160009054906101000a900473ffffffffffffffffffffffffffffffffffffffff1673ffffffffffffffffffffffffffffffffffffffff1673ffffffffffffffffffffffffffffffffffffffff1681526020016003820160149054906101000a900460ff1615151515815250508185815181106110a8576110a7614786565b5b602002602001018190525083806110be906147e4565b9450505b82806110cd906147e4565b935050610f0d565b809550505050505090565b6000806110ec83612302565b9050600073ffffffffffffffffffffffffffffffffffffffff168173ffffffffffffffffffffffffffffffffffffffff160361115d576040517f08c379a0000000000000000000000000000000000000000000000000000000008152600401611154906149e2565b60405180910390fd5b80915050919050565b600080600b600084815260200190815260200160002054905080915050919050565b60008073ffffffffffffffffffffffffffffffffffffffff168273ffffffffffffffffffffffffffffffffffffffff16036111f8576040517f08c379a00000000000000000000000000000000000000000000000000000000081526004016111ef90614a74565b60405180910390fd5b600360008373ffffffffffffffffffffffffffffffffffffffff1673ffffffffffffffffffffffffffffffffffffffff168152602001908152602001600020549050919050565b611247612a09565b6112516000612a87565b565b6060600f805480602002602001604051908101604052809291908181526020016000905b8282101561138457838290600052602060002090600402016040518060a001604052908160008201548152602001600182015481526020016002820160009054906101000a900473ffffffffffffffffffffffffffffffffffffffff1673ffffffffffffffffffffffffffffffffffffffff1673ffffffffffffffffffffffffffffffffffffffff1681526020016003820160009054906101000a900473ffffffffffffffffffffffffffffffffffffffff1673ffffffffffffffffffffffffffffffffffffffff1673ffffffffffffffffffffffffffffffffffffffff1681526020016003820160149054906101000a900460ff16151515158152505081526020019060010190611277565b50505050905090565b6658d15e1762800034146113d6576040517f08c379a00000000000000000000000000000000000000000000000000000000081526004016113cd90614ae0565b60405180910390fd5b6113df81611c9c565b1561141f576040517f08c379a000000000000000000000000000000000000000000000000000000000815260040161141690614b4c565b60405180910390fd5b6114296008612b4d565b6114336009612b4d565b600061143f6008612b63565b905061144b3382612b71565b6114558183612b8f565b611460338483612c03565b61146c6000338361233f565b505050565b3373ffffffffffffffffffffffffffffffffffffffff16611491826110e0565b73ffffffffffffffffffffffffffffffffffffffff16146114e7576040517f08c379a00000000000000000000000000000000000000000000000000000000081526004016114de90614bb8565b60405180910390fd5b6114f081612d36565b6114fc3360008361233f565b50565b611507612a09565b6001811161154a576040517f08c379a000000000000000000000000000000000000000000000000000000000815260040161154190614c4a565b60405180910390fd5b8060108190555050565b60008061156084611188565b905082600d60008673ffffffffffffffffffffffffffffffffffffffff1673ffffffffffffffffffffffffffffffffffffffff16815260200190815260200160002060008381526020019081526020016000208190555080600e6000858152602001908152602001600020819055508091505092915050565b6000600760009054906101000a900473ffffffffffffffffffffffffffffffffffffffff16905090565b6010543414611647576040517f08c379a000000000000000000000000000000000000000000000000000000000815260040161163e90614cb6565b60405180910390fd5b611650826110e0565b73ffffffffffffffffffffffffffffffffffffffff163373ffffffffffffffffffffffffffffffffffffffff16146116bd576040517f08c379a00000000000000000000000000000000000000000000000000000000081526004016116b490614d48565b60405180910390fd5b60008111611700576040517f08c379a00000000000000000000000000000000000000000000000000000000081526004016116f790614db4565b60405180910390fd5b6000600b60008481526020019081526020016000205490506001600f6001836117299190614dd4565b8154811061173a57611739614786565b5b906000526020600020906004020160030160146101000a81548160ff02191690831515021790555081600f6001836117729190614dd4565b8154811061178357611782614786565b5b906000526020600020906004020160000181905550505050565b6117a5613a40565b6117af6009612b63565b8211156117f1576040517f08c379a00000000000000000000000000000000000000000000000000000000081526004016117e890614e54565b60405180910390fd5b600a60008381526020019081526020016000206040518060a001604052908160008201548152602001600182015481526020016002820160009054906101000a900473ffffffffffffffffffffffffffffffffffffffff1673ffffffffffffffffffffffffffffffffffffffff1673ffffffffffffffffffffffffffffffffffffffff1681526020016003820160009054906101000a900473ffffffffffffffffffffffffffffffffffffffff1673ffffffffffffffffffffffffffffffffffffffff1673ffffffffffffffffffffffffffffffffffffffff1681526020016003820160149054906101000a900460ff1615151515815250509050919050565b606060018054611900906145c5565b80601f016020809104026020016040519081016040528092919081815260200182805461192c906145c5565b80156119795780601f1061194e57610100808354040283529160200191611979565b820191906000526020600020905b81548152906001019060200180831161195c57829003601f168201915b5050505050905090565b61198c816110e0565b73ffffffffffffffffffffffffffffffffffffffff163373ffffffffffffffffffffffffffffffffffffffff16146119f9576040517f08c379a00000000000000000000000000000000000000000000000000000000081526004016119f090614d48565b60405180910390fd5b6000600b60008381526020019081526020016000205490506000600f600183611a229190614dd4565b81548110611a3357611a32614786565b5b906000526020600020906004020160030160146101000a81548160ff0219169083151502179055505050565b611a71611a6a611eb3565b8383612e84565b5050565b611a86611a80611eb3565b83611f74565b611ac5576040517f08c379a0000000000000000000000000000000000000000000000000000000008152600401611abc9061489e565b60405180910390fd5b611ad184848484612ff0565b50505050565b6000600a6000838152602001908152602001600020600001549050919050565b600f8181548110611b0757600080fd5b90600052602060002090600402016000915090508060000154908060010154908060020160009054906101000a900473ffffffffffffffffffffffffffffffffffffffff16908060030160009054906101000a900473ffffffffffffffffffffffffffffffffffffffff16908060030160149054906101000a900460ff16905085565b6060611b9582611e68565b6000600660008481526020019081526020016000208054611bb5906145c5565b80601f0160208091040260200160405190810160405280929190818152602001828054611be1906145c5565b8015611c2e5780601f10611c0357610100808354040283529160200191611c2e565b820191906000526020600020905b815481529060010190602001808311611c1157829003601f168201915b505050505090506000611c3f61304c565b90506000815103611c54578192505050611c97565b600082511115611c89578082604051602001611c71929190614eb0565b60405160208183030381529060405292505050611c97565b611c9284613063565b925050505b919050565b600060011515600c83604051611cb29190614ed4565b908152602001604051809103902060009054906101000a900460ff161515149050919050565b60006658d15e17628000905090565b6000600560008473ffffffffffffffffffffffffffffffffffffffff1673ffffffffffffffffffffffffffffffffffffffff16815260200190815260200160002060008373ffffffffffffffffffffffffffffffffffffffff1673ffffffffffffffffffffffffffffffffffffffff16815260200190815260200160002060009054906101000a900460ff16905092915050565b611d83612a09565b600073ffffffffffffffffffffffffffffffffffffffff168173ffffffffffffffffffffffffffffffffffffffff1603611df2576040517f08c379a0000000000000000000000000000000000000000000000000000000008152600401611de990614f5d565b60405180910390fd5b611dfb81612a87565b50565b60007f01ffc9a7000000000000000000000000000000000000000000000000000000007bffffffffffffffffffffffffffffffffffffffffffffffffffffffff1916827bffffffffffffffffffffffffffffffffffffffffffffffffffffffff1916149050919050565b611e71816130cb565b611eb0576040517f08c379a0000000000000000000000000000000000000000000000000000000008152600401611ea7906149e2565b60405180910390fd5b50565b600033905090565b816004600083815260200190815260200160002060006101000a81548173ffffffffffffffffffffffffffffffffffffffff021916908373ffffffffffffffffffffffffffffffffffffffff160217905550808273ffffffffffffffffffffffffffffffffffffffff16611f2e836110e0565b73ffffffffffffffffffffffffffffffffffffffff167f8c5be1e5ebec7d5bd14f71427d1e84f3dd0314c0f7b2291e5b200ac8c7c3b92560405160405180910390a45050565b600080611f80836110e0565b90508073ffffffffffffffffffffffffffffffffffffffff168473ffffffffffffffffffffffffffffffffffffffff161480611fc25750611fc18185611ce7565b5b8061200057508373ffffffffffffffffffffffffffffffffffffffff16611fe8846109c3565b73ffffffffffffffffffffffffffffffffffffffff16145b91505092915050565b8273ffffffffffffffffffffffffffffffffffffffff16612029826110e0565b73ffffffffffffffffffffffffffffffffffffffff161461207f576040517f08c379a000000000000000000000000000000000000000000000000000000000815260040161207690614fef565b60405180910390fd5b600073ffffffffffffffffffffffffffffffffffffffff168273ffffffffffffffffffffffffffffffffffffffff16036120ee576040517f08c379a00000000000000000000000000000000000000000000000000000000081526004016120e590615081565b60405180910390fd5b6120fb838383600161310c565b8273ffffffffffffffffffffffffffffffffffffffff1661211b826110e0565b73ffffffffffffffffffffffffffffffffffffffff1614612171576040517f08c379a000000000000000000000000000000000000000000000000000000000815260040161216890614fef565b60405180910390fd5b6004600082815260200190815260200160002060006101000a81549073ffffffffffffffffffffffffffffffffffffffff02191690556001600360008573ffffffffffffffffffffffffffffffffffffffff1673ffffffffffffffffffffffffffffffffffffffff168152602001908152602001600020600082825403925050819055506001600360008473ffffffffffffffffffffffffffffffffffffffff1673ffffffffffffffffffffffffffffffffffffffff16815260200190815260200160002060008282540192505081905550816002600083815260200190815260200160002060006101000a81548173ffffffffffffffffffffffffffffffffffffffff021916908373ffffffffffffffffffffffffffffffffffffffff160217905550808273ffffffffffffffffffffffffffffffffffffffff168473ffffffffffffffffffffffffffffffffffffffff167fddf252ad1be2c89b69c2b068fc378daa952ba7f163c4a11628f55a4df523b3ef60405160405180910390a46122fd8383836001613232565b505050565b60006002600083815260200190815260200160002060009054906101000a900473ffffffffffffffffffffffffffffffffffffffff169050919050565b600073ffffffffffffffffffffffffffffffffffffffff168373ffffffffffffffffffffffffffffffffffffffff16036124f357600f600a6000838152602001908152602001600020908060018154018082558091505060019003906000526020600020906004020160009091909190915060008201548160000155600182015481600101556002820160009054906101000a900473ffffffffffffffffffffffffffffffffffffffff168160020160006101000a81548173ffffffffffffffffffffffffffffffffffffffff021916908373ffffffffffffffffffffffffffffffffffffffff1602179055506003820160009054906101000a900473ffffffffffffffffffffffffffffffffffffffff168160030160006101000a81548173ffffffffffffffffffffffffffffffffffffffff021916908373ffffffffffffffffffffffffffffffffffffffff1602179055506003820160149054906101000a900460ff168160030160146101000a81548160ff02191690831515021790555050506124cc8282611554565b506124d76009612b63565b600b6000838152602001908152602001600020819055506129a8565b600073ffffffffffffffffffffffffffffffffffffffff168273ffffffffffffffffffffffffffffffffffffffff1603612894576125318382613238565b6000600b6000838152602001908152602001600020549050600060016125576009612b63565b6125619190614dd4565b90506000600f828154811061257957612578614786565b5b90600052602060002090600402016001015490506125976009612b63565b83146127ce57600f6001846125ac9190614dd4565b815481106125bd576125bc614786565b5b906000526020600020906004020160008082016000905560018201600090556002820160006101000a81549073ffffffffffffffffffffffffffffffffffffffff02191690556003820160006101000a81549073ffffffffffffffffffffffffffffffffffffffff02191690556003820160146101000a81549060ff02191690555050600f828154811061265457612653614786565b5b9060005260206000209060040201600f6001856126719190614dd4565b8154811061268257612681614786565b5b906000526020600020906004020160008201548160000155600182015481600101556002820160009054906101000a900473ffffffffffffffffffffffffffffffffffffffff168160020160006101000a81548173ffffffffffffffffffffffffffffffffffffffff021916908373ffffffffffffffffffffffffffffffffffffffff1602179055506003820160009054906101000a900473ffffffffffffffffffffffffffffffffffffffff168160030160006101000a81548173ffffffffffffffffffffffffffffffffffffffff021916908373ffffffffffffffffffffffffffffffffffffffff1602179055506003820160149054906101000a900460ff168160030160146101000a81548160ff021916908315150217905550905050600b600084815260200190815260200160002054600b6000838152602001908152602001600020819055505b600f8054806127e0576127df6150a1565b5b600190038181906000526020600020906004020160008082016000905560018201600090556002820160006101000a81549073ffffffffffffffffffffffffffffffffffffffff02191690556003820160006101000a81549073ffffffffffffffffffffffffffffffffffffffff02191690556003820160146101000a81549060ff02191690555050905561287560096129ad565b600b6000848152602001908152602001600020600090555050506129a7565b8273ffffffffffffffffffffffffffffffffffffffff168273ffffffffffffffffffffffffffffffffffffffff16146129a6576000600b600083815260200190815260200160002054905080806128ea906150d0565b91505082600f828154811061290257612901614786565b5b906000526020600020906004020160030160006101000a81548173ffffffffffffffffffffffffffffffffffffffff021916908373ffffffffffffffffffffffffffffffffffffffff1602179055506000600f828154811061296757612966614786565b5b906000526020600020906004020160030160146101000a81548160ff0219169083151502179055506129998483613238565b6129a38383611554565b50505b5b5b505050565b600081600001549050600081116129f9576040517f08c379a00000000000000000000000000000000000000000000000000000000081526004016129f090615145565b60405180910390fd5b6001810382600001819055505050565b612a11611eb3565b73ffffffffffffffffffffffffffffffffffffffff16612a2f6115d9565b73ffffffffffffffffffffffffffffffffffffffff1614612a85576040517f08c379a0000000000000000000000000000000000000000000000000000000008152600401612a7c906151b1565b60405180910390fd5b565b6000600760009054906101000a900473ffffffffffffffffffffffffffffffffffffffff16905081600760006101000a81548173ffffffffffffffffffffffffffffffffffffffff021916908373ffffffffffffffffffffffffffffffffffffffff1602179055508173ffffffffffffffffffffffffffffffffffffffff168173ffffffffffffffffffffffffffffffffffffffff167f8be0079c531659141344cd1fd0a4f28419497f9722a3daafe3b4186f6b6457e060405160405180910390a35050565b6001816000016000828254019250508190555050565b600081600001549050919050565b612b8b8282604051806020016040528060008152506133fd565b5050565b612b98826130cb565b612bd7576040517f08c379a0000000000000000000000000000000000000000000000000000000008152600401612bce90615243565b60405180910390fd5b80600660008481526020019081526020016000209080519060200190612bfe929190613a9d565b505050565b6040518060a001604052808381526020018281526020018473ffffffffffffffffffffffffffffffffffffffff1681526020018473ffffffffffffffffffffffffffffffffffffffff16815260200160011515815250600a6000838152602001908152602001600020600082015181600001556020820151816001015560408201518160020160006101000a81548173ffffffffffffffffffffffffffffffffffffffff021916908373ffffffffffffffffffffffffffffffffffffffff16021790555060608201518160030160006101000a81548173ffffffffffffffffffffffffffffffffffffffff021916908373ffffffffffffffffffffffffffffffffffffffff16021790555060808201518160030160146101000a81548160ff021916908315150217905550905050505050565b6000612d41826110e0565b9050612d5181600084600161310c565b612d5a826110e0565b90506004600083815260200190815260200160002060006101000a81549073ffffffffffffffffffffffffffffffffffffffff02191690556001600360008373ffffffffffffffffffffffffffffffffffffffff1673ffffffffffffffffffffffffffffffffffffffff168152602001908152602001600020600082825403925050819055506002600083815260200190815260200160002060006101000a81549073ffffffffffffffffffffffffffffffffffffffff021916905581600073ffffffffffffffffffffffffffffffffffffffff168273ffffffffffffffffffffffffffffffffffffffff167fddf252ad1be2c89b69c2b068fc378daa952ba7f163c4a11628f55a4df523b3ef60405160405180910390a4612e80816000846001613232565b5050565b8173ffffffffffffffffffffffffffffffffffffffff168373ffffffffffffffffffffffffffffffffffffffff1603612ef2576040517f08c379a0000000000000000000000000000000000000000000000000000000008152600401612ee9906152af565b60405180910390fd5b80600560008573ffffffffffffffffffffffffffffffffffffffff1673ffffffffffffffffffffffffffffffffffffffff16815260200190815260200160002060008473ffffffffffffffffffffffffffffffffffffffff1673ffffffffffffffffffffffffffffffffffffffff16815260200190815260200160002060006101000a81548160ff0219169083151502179055508173ffffffffffffffffffffffffffffffffffffffff168373ffffffffffffffffffffffffffffffffffffffff167f17307eab39ab6107e8899845ad3d59bd9653f200f220920489ca2b5937696c3183604051612fe39190613bf4565b60405180910390a3505050565b612ffb848484612009565b61300784848484613458565b613046576040517f08c379a000000000000000000000000000000000000000000000000000000000815260040161303d90615341565b60405180910390fd5b50505050565b606060405180602001604052806000815250905090565b606061306e82611e68565b600061307861304c565b9050600081511161309857604051806020016040528060008152506130c3565b806130a2846135df565b6040516020016130b3929190614eb0565b6040516020818303038152906040525b915050919050565b60008073ffffffffffffffffffffffffffffffffffffffff166130ed83612302565b73ffffffffffffffffffffffffffffffffffffffff1614159050919050565b600181111561322c57600073ffffffffffffffffffffffffffffffffffffffff168473ffffffffffffffffffffffffffffffffffffffff16146131a05780600360008673ffffffffffffffffffffffffffffffffffffffff1673ffffffffffffffffffffffffffffffffffffffff16815260200190815260200160002060008282546131989190614dd4565b925050819055505b600073ffffffffffffffffffffffffffffffffffffffff168373ffffffffffffffffffffffffffffffffffffffff161461322b5780600360008573ffffffffffffffffffffffffffffffffffffffff1673ffffffffffffffffffffffffffffffffffffffff16815260200190815260200160002060008282546132239190615361565b925050819055505b5b50505050565b50505050565b600061324383611188565b90508080613250906147e4565b9150506000600e600084815260200190815260200160002054905081811461338c576000600d60008673ffffffffffffffffffffffffffffffffffffffff1673ffffffffffffffffffffffffffffffffffffffff16815260200190815260200160002060008581526020019081526020016000205490506000600d60008773ffffffffffffffffffffffffffffffffffffffff1673ffffffffffffffffffffffffffffffffffffffff168152602001908152602001600020600085815260200190815260200160002054905081600e60008381526020019081526020016000208190555080600d60008873ffffffffffffffffffffffffffffffffffffffff1673ffffffffffffffffffffffffffffffffffffffff16815260200190815260200160002060008481526020019081526020016000208190555050505b600d60008573ffffffffffffffffffffffffffffffffffffffff1673ffffffffffffffffffffffffffffffffffffffff168152602001908152602001600020600083815260200190815260200160002060009055600e60008481526020019081526020016000206000905550505050565b61340783836136ad565b6134146000848484613458565b613453576040517f08c379a000000000000000000000000000000000000000000000000000000000815260040161344a90615341565b60405180910390fd5b505050565b60006134798473ffffffffffffffffffffffffffffffffffffffff166138ca565b156135d2578373ffffffffffffffffffffffffffffffffffffffff1663150b7a026134a2611eb3565b8786866040518563ffffffff1660e01b81526004016134c4949392919061540c565b6020604051808303816000875af192505050801561350057506040513d601f19601f820116820180604052508101906134fd919061546d565b60015b613582573d8060008114613530576040519150601f19603f3d011682016040523d82523d6000602084013e613535565b606091505b50600081510361357a576040517f08c379a000000000000000000000000000000000000000000000000000000000815260040161357190615341565b60405180910390fd5b805181602001fd5b63150b7a0260e01b7bffffffffffffffffffffffffffffffffffffffffffffffffffffffff1916817bffffffffffffffffffffffffffffffffffffffffffffffffffffffff1916149150506135d7565b600190505b949350505050565b6060600060016135ee846138ed565b01905060008167ffffffffffffffff81111561360d5761360c6140e0565b5b6040519080825280601f01601f19166020018201604052801561363f5781602001600182028036833780820191505090505b509050600082602001820190505b6001156136a2578080600190039150507f3031323334353637383961626364656600000000000000000000000000000000600a86061a8153600a85816136965761369561549a565b5b0494506000850361364d575b819350505050919050565b600073ffffffffffffffffffffffffffffffffffffffff168273ffffffffffffffffffffffffffffffffffffffff160361371c576040517f08c379a000000000000000000000000000000000000000000000000000000000815260040161371390615515565b60405180910390fd5b613725816130cb565b15613765576040517f08c379a000000000000000000000000000000000000000000000000000000000815260040161375c90615581565b60405180910390fd5b61377360008383600161310c565b61377c816130cb565b156137bc576040517f08c379a00000000000000000000000000000000000000000000000000000000081526004016137b390615581565b60405180910390fd5b6001600360008473ffffffffffffffffffffffffffffffffffffffff1673ffffffffffffffffffffffffffffffffffffffff16815260200190815260200160002060008282540192505081905550816002600083815260200190815260200160002060006101000a81548173ffffffffffffffffffffffffffffffffffffffff021916908373ffffffffffffffffffffffffffffffffffffffff160217905550808273ffffffffffffffffffffffffffffffffffffffff16600073ffffffffffffffffffffffffffffffffffffffff167fddf252ad1be2c89b69c2b068fc378daa952ba7f163c4a11628f55a4df523b3ef60405160405180910390a46138c6600083836001613232565b5050565b6000808273ffffffffffffffffffffffffffffffffffffffff163b119050919050565b600080600090507a184f03e93ff9f4daa797ed6e38ed64bf6a1f010000000000000000831061394b577a184f03e93ff9f4daa797ed6e38ed64bf6a1f01000000000000000083816139415761394061549a565b5b0492506040810190505b6d04ee2d6d415b85acef81000000008310613988576d04ee2d6d415b85acef8100000000838161397e5761397d61549a565b5b0492506020810190505b662386f26fc1000083106139b757662386f26fc1000083816139ad576139ac61549a565b5b0492506010810190505b6305f5e10083106139e0576305f5e10083816139d6576139d561549a565b5b0492506008810190505b6127108310613a055761271083816139fb576139fa61549a565b5b0492506004810190505b60648310613a285760648381613a1e57613a1d61549a565b5b0492506002810190505b600a8310613a37576001810190505b80915050919050565b6040518060a001604052806000815260200160008152602001600073ffffffffffffffffffffffffffffffffffffffff168152602001600073ffffffffffffffffffffffffffffffffffffffff1681526020016000151581525090565b828054613aa9906145c5565b90600052602060002090601f016020900481019282613acb5760008555613b12565b82601f10613ae457805160ff1916838001178555613b12565b82800160010185558215613b12579182015b82811115613b11578251825591602001919060010190613af6565b5b509050613b1f9190613b23565b5090565b5b80821115613b3c576000816000905550600101613b24565b5090565b6000604051905090565b600080fd5b600080fd5b60007fffffffff0000000000000000000000000000000000000000000000000000000082169050919050565b613b8981613b54565b8114613b9457600080fd5b50565b600081359050613ba681613b80565b92915050565b600060208284031215613bc257613bc1613b4a565b5b6000613bd084828501613b97565b91505092915050565b60008115159050919050565b613bee81613bd9565b82525050565b6000602082019050613c096000830184613be5565b92915050565b600081519050919050565b600082825260208201905092915050565b60005b83811015613c49578082015181840152602081019050613c2e565b83811115613c58576000848401525b50505050565b6000601f19601f8301169050919050565b6000613c7a82613c0f565b613c848185613c1a565b9350613c94818560208601613c2b565b613c9d81613c5e565b840191505092915050565b60006020820190508181036000830152613cc28184613c6f565b905092915050565b6000819050919050565b613cdd81613cca565b8114613ce857600080fd5b50565b600081359050613cfa81613cd4565b92915050565b600060208284031215613d1657613d15613b4a565b5b6000613d2484828501613ceb565b91505092915050565b600073ffffffffffffffffffffffffffffffffffffffff82169050919050565b6000613d5882613d2d565b9050919050565b613d6881613d4d565b82525050565b6000602082019050613d836000830184613d5f565b92915050565b613d9281613d4d565b8114613d9d57600080fd5b50565b600081359050613daf81613d89565b92915050565b60008060408385031215613dcc57613dcb613b4a565b5b6000613dda85828601613da0565b9250506020613deb85828601613ceb565b9150509250929050565b613dfe81613cca565b82525050565b6000602082019050613e196000830184613df5565b92915050565b600081519050919050565b600082825260208201905092915050565b6000819050602082019050919050565b613e5481613cca565b82525050565b6000613e668383613e4b565b60208301905092915050565b6000602082019050919050565b6000613e8a82613e1f565b613e948185613e2a565b9350613e9f83613e3b565b8060005b83811015613ed0578151613eb78882613e5a565b9750613ec283613e72565b925050600181019050613ea3565b5085935050505092915050565b60006020820190508181036000830152613ef78184613e7f565b905092915050565b600080600060608486031215613f1857613f17613b4a565b5b6000613f2686828701613da0565b9350506020613f3786828701613da0565b9250506040613f4886828701613ceb565b9150509250925092565b600081519050919050565b600082825260208201905092915050565b6000819050602082019050919050565b613f8781613d4d565b82525050565b613f9681613bd9565b82525050565b60a082016000820151613fb26000850182613e4b565b506020820151613fc56020850182613e4b565b506040820151613fd86040850182613f7e565b506060820151613feb6060850182613f7e565b506080820151613ffe6080850182613f8d565b50505050565b60006140108383613f9c565b60a08301905092915050565b6000602082019050919050565b600061403482613f52565b61403e8185613f5d565b935061404983613f6e565b8060005b8381101561407a5781516140618882614004565b975061406c8361401c565b92505060018101905061404d565b5085935050505092915050565b600060208201905081810360008301526140a18184614029565b905092915050565b6000602082840312156140bf576140be613b4a565b5b60006140cd84828501613da0565b91505092915050565b600080fd5b600080fd5b7f4e487b7100000000000000000000000000000000000000000000000000000000600052604160045260246000fd5b61411882613c5e565b810181811067ffffffffffffffff82111715614137576141366140e0565b5b80604052505050565b600061414a613b40565b9050614156828261410f565b919050565b600067ffffffffffffffff821115614176576141756140e0565b5b61417f82613c5e565b9050602081019050919050565b82818337600083830152505050565b60006141ae6141a98461415b565b614140565b9050828152602081018484840111156141ca576141c96140db565b5b6141d584828561418c565b509392505050565b600082601f8301126141f2576141f16140d6565b5b813561420284826020860161419b565b91505092915050565b6000806040838503121561422257614221613b4a565b5b600061423085828601613ceb565b925050602083013567ffffffffffffffff81111561425157614250613b4f565b5b61425d858286016141dd565b9150509250929050565b6000806040838503121561427e5761427d613b4a565b5b600061428c85828601613ceb565b925050602061429d85828601613ceb565b9150509250929050565b60a0820160008201516142bd6000850182613e4b565b5060208201516142d06020850182613e4b565b5060408201516142e36040850182613f7e565b5060608201516142f66060850182613f7e565b5060808201516143096080850182613f8d565b50505050565b600060a08201905061432460008301846142a7565b92915050565b61433381613bd9565b811461433e57600080fd5b50565b6000813590506143508161432a565b92915050565b6000806040838503121561436d5761436c613b4a565b5b600061437b85828601613da0565b925050602061438c85828601614341565b9150509250929050565b600067ffffffffffffffff8211156143b1576143b06140e0565b5b6143ba82613c5e565b9050602081019050919050565b60006143da6143d584614396565b614140565b9050828152602081018484840111156143f6576143f56140db565b5b61440184828561418c565b509392505050565b600082601f83011261441e5761441d6140d6565b5b813561442e8482602086016143c7565b91505092915050565b6000806000806080858703121561445157614450613b4a565b5b600061445f87828801613da0565b945050602061447087828801613da0565b935050604061448187828801613ceb565b925050606085013567ffffffffffffffff8111156144a2576144a1613b4f565b5b6144ae87828801614409565b91505092959194509250565b600060a0820190506144cf6000830188613df5565b6144dc6020830187613df5565b6144e96040830186613d5f565b6144f66060830185613d5f565b6145036080830184613be5565b9695505050505050565b60006020828403121561452357614522613b4a565b5b600082013567ffffffffffffffff81111561454157614540613b4f565b5b61454d848285016141dd565b91505092915050565b6000806040838503121561456d5761456c613b4a565b5b600061457b85828601613da0565b925050602061458c85828601613da0565b9150509250929050565b7f4e487b7100000000000000000000000000000000000000000000000000000000600052602260045260246000fd5b600060028204905060018216806145dd57607f821691505b6020821081036145f0576145ef614596565b5b50919050565b7f4552433732313a20617070726f76616c20746f2063757272656e74206f776e6560008201527f7200000000000000000000000000000000000000000000000000000000000000602082015250565b6000614652602183613c1a565b915061465d826145f6565b604082019050919050565b6000602082019050818103600083015261468181614645565b9050919050565b7f4552433732313a20617070726f76652063616c6c6572206973206e6f7420746f60008201527f6b656e206f776e6572206f7220617070726f76656420666f7220616c6c000000602082015250565b60006146e4603d83613c1a565b91506146ef82614688565b604082019050919050565b60006020820190508181036000830152614713816146d7565b9050919050565b7f796f7520646f6e74206f776e20616e797468696e670000000000000000000000600082015250565b6000614750601583613c1a565b915061475b8261471a565b602082019050919050565b6000602082019050818103600083015261477f81614743565b9050919050565b7f4e487b7100000000000000000000000000000000000000000000000000000000600052603260045260246000fd5b7f4e487b7100000000000000000000000000000000000000000000000000000000600052601160045260246000fd5b60006147ef82613cca565b91507fffffffffffffffffffffffffffffffffffffffffffffffffffffffffffffffff8203614821576148206147b5565b5b600182019050919050565b7f4552433732313a2063616c6c6572206973206e6f7420746f6b656e206f776e6560008201527f72206f7220617070726f76656400000000000000000000000000000000000000602082015250565b6000614888602d83613c1a565b91506148938261482c565b604082019050919050565b600060208201905081810360008301526148b78161487b565b9050919050565b7f796f752061726520746865206f776e6572000000000000000000000000000000600082015250565b60006148f4601183613c1a565b91506148ff826148be565b602082019050919050565b60006020820190508181036000830152614923816148e7565b9050919050565b7f696e636f72726563742045544800000000000000000000000000000000000000600082015250565b6000614960600d83613c1a565b915061496b8261492a565b602082019050919050565b6000602082019050818103600083015261498f81614953565b9050919050565b7f4552433732313a20696e76616c696420746f6b656e2049440000000000000000600082015250565b60006149cc601883613c1a565b91506149d782614996565b602082019050919050565b600060208201905081810360008301526149fb816149bf565b9050919050565b7f4552433732313a2061646472657373207a65726f206973206e6f74206120766160008201527f6c6964206f776e65720000000000000000000000000000000000000000000000602082015250565b6000614a5e602983613c1a565b9150614a6982614a02565b604082019050919050565b60006020820190508181036000830152614a8d81614a51565b9050919050565b7f6e6f7420636f7272656374206574680000000000000000000000000000000000600082015250565b6000614aca600f83613c1a565b9150614ad582614a94565b602082019050919050565b60006020820190508181036000830152614af981614abd565b9050919050565b7f746f6b656e20616c726561647920657869737400000000000000000000000000600082015250565b6000614b36601383613c1a565b9150614b4182614b00565b602082019050919050565b60006020820190508181036000830152614b6581614b29565b9050919050565b7f6f6e6c792069732061626c6520746f206275726e20746f6b656e000000000000600082015250565b6000614ba2601a83613c1a565b9150614bad82614b6c565b602082019050919050565b60006020820190508181036000830152614bd181614b95565b9050919050565b7f6e6577207072696365206d6f737420626520626967676572207468616e20312060008201527f5765690000000000000000000000000000000000000000000000000000000000602082015250565b6000614c34602383613c1a565b9150614c3f82614bd8565b604082019050919050565b60006020820190508181036000830152614c6381614c27565b9050919050565b7f6e6f742073756666696363656e742066756e6400000000000000000000000000600082015250565b6000614ca0601383613c1a565b9150614cab82614c6a565b602082019050919050565b60006020820190508181036000830152614ccf81614c93565b9050919050565b7f6f6e6c7920746865206f776e657220697320616c6c6f77656420746f206c697360008201527f7420746865206e65772070726963650000000000000000000000000000000000602082015250565b6000614d32602f83613c1a565b9150614d3d82614cd6565b604082019050919050565b60006020820190508181036000830152614d6181614d25565b9050919050565b7f77726f6e672076616c756520656e746572656400000000000000000000000000600082015250565b6000614d9e601383613c1a565b9150614da982614d68565b602082019050919050565b60006020820190508181036000830152614dcd81614d91565b9050919050565b6000614ddf82613cca565b9150614dea83613cca565b925082821015614dfd57614dfc6147b5565b5b828203905092915050565b7f4e4654206e6f7420617661696c61626c65000000000000000000000000000000600082015250565b6000614e3e601183613c1a565b9150614e4982614e08565b602082019050919050565b60006020820190508181036000830152614e6d81614e31565b9050919050565b600081905092915050565b6000614e8a82613c0f565b614e948185614e74565b9350614ea4818560208601613c2b565b80840191505092915050565b6000614ebc8285614e7f565b9150614ec88284614e7f565b91508190509392505050565b6000614ee08284614e7f565b915081905092915050565b7f4f776e61626c653a206e6577206f776e657220697320746865207a65726f206160008201527f6464726573730000000000000000000000000000000000000000000000000000602082015250565b6000614f47602683613c1a565b9150614f5282614eeb565b604082019050919050565b60006020820190508181036000830152614f7681614f3a565b9050919050565b7f4552433732313a207472616e736665722066726f6d20696e636f72726563742060008201527f6f776e6572000000000000000000000000000000000000000000000000000000602082015250565b6000614fd9602583613c1a565b9150614fe482614f7d565b604082019050919050565b6000602082019050818103600083015261500881614fcc565b9050919050565b7f4552433732313a207472616e7366657220746f20746865207a65726f2061646460008201527f7265737300000000000000000000000000000000000000000000000000000000602082015250565b600061506b602483613c1a565b91506150768261500f565b604082019050919050565b6000602082019050818103600083015261509a8161505e565b9050919050565b7f4e487b7100000000000000000000000000000000000000000000000000000000600052603160045260246000fd5b60006150db82613cca565b9150600082036150ee576150ed6147b5565b5b600182039050919050565b7f436f756e7465723a2064656372656d656e74206f766572666c6f770000000000600082015250565b600061512f601b83613c1a565b915061513a826150f9565b602082019050919050565b6000602082019050818103600083015261515e81615122565b9050919050565b7f4f776e61626c653a2063616c6c6572206973206e6f7420746865206f776e6572600082015250565b600061519b602083613c1a565b91506151a682615165565b602082019050919050565b600060208201905081810360008301526151ca8161518e565b9050919050565b7f45524337323155524953746f726167653a2055524920736574206f66206e6f6e60008201527f6578697374656e7420746f6b656e000000000000000000000000000000000000602082015250565b600061522d602e83613c1a565b9150615238826151d1565b604082019050919050565b6000602082019050818103600083015261525c81615220565b9050919050565b7f4552433732313a20617070726f766520746f2063616c6c657200000000000000600082015250565b6000615299601983613c1a565b91506152a482615263565b602082019050919050565b600060208201905081810360008301526152c88161528c565b9050919050565b7f4552433732313a207472616e7366657220746f206e6f6e20455243373231526560008201527f63656976657220696d706c656d656e7465720000000000000000000000000000602082015250565b600061532b603283613c1a565b9150615336826152cf565b604082019050919050565b6000602082019050818103600083015261535a8161531e565b9050919050565b600061536c82613cca565b915061537783613cca565b9250827fffffffffffffffffffffffffffffffffffffffffffffffffffffffffffffffff038211156153ac576153ab6147b5565b5b828201905092915050565b600081519050919050565b600082825260208201905092915050565b60006153de826153b7565b6153e881856153c2565b93506153f8818560208601613c2b565b61540181613c5e565b840191505092915050565b60006080820190506154216000830187613d5f565b61542e6020830186613d5f565b61543b6040830185613df5565b818103606083015261544d81846153d3565b905095945050505050565b60008151905061546781613b80565b92915050565b60006020828403121561548357615482613b4a565b5b600061549184828501615458565b91505092915050565b7f4e487b7100000000000000000000000000000000000000000000000000000000600052601260045260246000fd5b7f4552433732313a206d696e7420746f20746865207a65726f2061646472657373600082015250565b60006154ff602083613c1a565b915061550a826154c9565b602082019050919050565b6000602082019050818103600083015261552e816154f2565b9050919050565b7f4552433732313a20746f6b656e20616c7265616479206d696e74656400000000600082015250565b600061556b601c83613c1a565b915061557682615535565b602082019050919050565b6000602082019050818103600083015261559a8161555e565b905091905056fea26469706673582212204285d08bd4534c19a47843e0262a0dba1ffabeee37646088daac35e17a04f84764736f6c634300080d0033",
  "immutableReferences": {},
  "source": "// SPDX-License-Identifier: MIT\r\n// Tells the Solidity compiler to compile only from v0.8.13 to v0.9.0\r\npragma solidity ^0.8.13;\r\n\r\nimport \"@openzeppelin/contracts/token/ERC721/extensions/ERC721URIStorage.sol\";\r\nimport \"@openzeppelin/contracts/utils/Counters.sol\";\r\nimport \"@openzeppelin/contracts/access/Ownable.sol\";\r\n\r\n// This is just a simple example of a coin-like contract.\r\n// It is not ERC20 compatible and cannot be expected to talk to other\r\n// coin/token contracts.\r\n\r\ncontract  NFTMarket is ERC721URIStorage,Ownable {\r\n  using Counters for Counters.Counter;\r\n\r\n  Counters.Counter NFTlist;\r\n  Counters.Counter totalItems;\r\n\r\n  struct NFTItem{\r\n    uint price;\r\n    uint tokedId;\r\n    address creator;\r\n    address currentOwner;\r\n    bool isListed;\r\n  }\r\n\r\n  mapping(uint=>NFTItem)private idToTokenInfo;\r\n\r\n  mapping(uint=>uint)private idToTokenIndex;\r\n\r\n  mapping(string=>bool)private NFTAvalable;\r\n\r\n  mapping(address=>mapping(uint=>uint))private ownedToken;\r\n\r\n  mapping(uint=>uint)private idOwnedTokenToIndex;\r\n\r\n  NFTItem [] public allNfts;\r\n\r\n  uint constant mintPrice=0.025 ether;\r\n  uint  listingPrice=0.025 ether;\r\n\r\n  constructor() ERC721(\"octoCreatures\",\"OCTK\"){\r\n\r\n  }\r\n  function NftExist(string memory tokenURIData)public view returns(bool){\r\n    return NFTAvalable[tokenURIData] == true;\r\n    \r\n  }\r\n  function NFTPrice(uint tokenId)public view returns(uint){\r\n    return idToTokenInfo[tokenId].price;\r\n  }\r\n\r\n  function mintToken(uint price,string memory tokenURIData)public payable{\r\n\r\n    require(msg.value == mintPrice,\"not correct eth\");\r\n    require(!NftExist(tokenURIData),\"token already exist\");\r\n\r\n    NFTlist.increment();\r\n    totalItems.increment();\r\n\r\n    uint NFTId = NFTlist.current();\r\n\r\n    _safeMint(msg.sender, NFTId);\r\n\r\n    _setTokenURI(NFTId, tokenURIData);\r\n    setNfTData(msg.sender,price,NFTId);\r\n    \r\n    beforeTokenTransfer(address(0),msg.sender,NFTId);\r\n    \r\n  }\r\n\r\n  function getNftById(uint NFTId)public view returns(NFTItem memory){\r\n    require(NFTId <= totalItems.current(),\"NFT not available\");\r\n    return idToTokenInfo[NFTId];\r\n  }\r\n\r\n  function getNFTindex(uint NFTId)public view returns(uint){\r\n    return idToTokenIndex[NFTId];\r\n  }\r\n\r\n  function getAllNfts()view public returns(NFTItem[] memory){\r\n    return allNfts;\r\n  }\r\n\r\n  function buyNFT(uint tokenId)public payable {\r\n\r\n    address owner=_ownerOf(tokenId);\r\n\r\n    require(owner != msg.sender,\"you are the owner\");\r\n\r\n    require(msg.value == idToTokenInfo[tokenId].price,\"incorrect ETH\");\r\n\r\n    _transfer(owner, msg.sender, tokenId);\r\n\r\n    beforeTokenTransfer(owner,msg.sender, tokenId);\r\n\r\n    NFTlist.decrement();\r\n\r\n    payable(owner).transfer(msg.value); \r\n  }\r\n\r\n  function setNfTData(address creator,uint price,uint NFTId)private{\r\n    idToTokenInfo[NFTId]=NFTItem(price,NFTId,creator,creator,true);\r\n  }\r\n\r\n  function totalSupply()public view returns(uint){\r\n    return allNfts.length;\r\n  }\r\n\r\n  function beforeTokenTransfer(address from, address to,uint tokenId)private {\r\n\r\n    if(from == address(0)){\r\n      allNfts.push(idToTokenInfo[tokenId]);\r\n\r\n      AddTokenToOwner(to,tokenId);\r\n\r\n      idToTokenIndex[tokenId] = totalItems.current();\r\n    }\r\n    else if(to == address(0)){\r\n      RemoveOwnerToken(from, tokenId);\r\n\r\n      uint tokenIndex = idToTokenIndex[tokenId];\r\n      uint lastIndex =totalItems.current()-1;\r\n      uint lastTokenId = allNfts[lastIndex].tokedId;\r\n\r\n      if(tokenIndex != totalItems.current()){\r\n\r\n      delete allNfts[tokenIndex-1];\r\n      allNfts[tokenIndex-1] = allNfts[lastIndex];\r\n      idToTokenIndex[lastTokenId] = idToTokenIndex[tokenIndex];\r\n      }\r\n      allNfts.pop();\r\n\r\n      totalItems.decrement();\r\n\r\n      delete idToTokenIndex[tokenIndex];\r\n      \r\n    }\r\n    else if(to != from){ \r\n      uint tokenIndex = idToTokenIndex[tokenId];\r\n      tokenIndex--;\r\n\r\n      allNfts[tokenIndex].currentOwner = to;\r\n      allNfts[tokenIndex].isListed = false;\r\n\r\n      RemoveOwnerToken(from,tokenId);\r\n      AddTokenToOwner(to,tokenId);\r\n    }\r\n\r\n  }\r\n\r\n  //--------------------------------------------------------\r\n\r\n  function AddTokenToOwner(address to ,uint tokenId)public returns(uint){\r\n    uint len = ERC721.balanceOf(to);\r\n    \r\n    ownedToken[to][len] = tokenId;\r\n    idOwnedTokenToIndex[tokenId] = len;\r\n\r\n    return len;\r\n  }\r\n\r\n  function getOwnedTokens()public view returns(NFTItem[] memory){\r\n      address owner = msg.sender;\r\n      uint ind=0;\r\n      uint counter=0;\r\n\r\n      require(ERC721.balanceOf(owner)>0,\"you dont own anything\");\r\n\r\n      uint totalTokensOwned = ERC721.balanceOf(owner);\r\n\r\n      NFTItem[] memory ownedItems = new NFTItem[](totalTokensOwned);\r\n\r\n      \r\n        while(ind<totalTokensOwned){\r\n\r\n          if(allNfts[counter].currentOwner == owner){\r\n            ownedItems[ind]=allNfts[counter];\r\n            ind++;\r\n          }\r\n          counter++;\r\n      }\r\n      return ownedItems;\r\n  }\r\n\r\n  function getOwnedNFTIndexs()public view returns( uint[] memory){\r\n    uint  len = ERC721.balanceOf(msg.sender);\r\n    address owner = msg.sender;\r\n\r\n    require(len>0,\"you dont own anything\");\r\n\r\n    uint totalTokensOwned = ERC721.balanceOf(owner);\r\n\r\n    uint[] memory ownedItems = new uint[](totalTokensOwned);\r\n\r\n    for(uint i=0;i<totalTokensOwned;i++){\r\n      ownedItems[i]= ownedToken[msg.sender][i];\r\n    }\r\n\r\n    return ownedItems;\r\n  }\r\n\r\n    //------------------------------------------------------\r\n    function RemoveOwnerToken(address from,uint tokenId)private {\r\n      uint len = ERC721.balanceOf(from);\r\n\r\n      len++;\r\n\r\n      uint tokenIndex = idOwnedTokenToIndex[tokenId];\r\n\r\n      if(tokenIndex != len){\r\n        uint indexTokenRemoved = ownedToken[from][tokenId];\r\n\r\n        uint lastOwnedToken = ownedToken[from][len];\r\n\r\n        idOwnedTokenToIndex[lastOwnedToken] = indexTokenRemoved;\r\n\r\n        ownedToken[from][indexTokenRemoved] = lastOwnedToken;\r\n\r\n      }\r\n      \r\n        delete ownedToken[from][len];\r\n\r\n        delete idOwnedTokenToIndex[tokenId];\r\n      \r\n\r\n    }\r\n\r\n    function burnToken(uint tokenId)public {\r\n      require(ERC721.ownerOf(tokenId) == msg.sender,\"only is able to burn token\");\r\n      ERC721._burn(tokenId);\r\n      beforeTokenTransfer(msg.sender,address(0),tokenId);\r\n\r\n    }\r\n\r\n    function setListingPrice(uint newListingPrice)onlyOwner external{\r\n      require(newListingPrice > 1, \"new price most be bigger than 1 Wei\");\r\n\r\n      listingPrice = newListingPrice;\r\n    }\r\n\r\n    function listNFT(uint tokenId,uint newPrice)public payable{\r\n      require(msg.value == listingPrice, \"not sufficcent fund\");\r\n      require(msg.sender == ERC721.ownerOf(tokenId),\"only the owner is allowed to list the new price\");\r\n      require(newPrice > 0 , \"wrong value entered\");\r\n\r\n      uint tokenIndex = idToTokenIndex[tokenId];\r\n\r\n      allNfts[tokenIndex-1].isListed=true;\r\n      allNfts[tokenIndex-1].price = newPrice;\r\n\r\n    }\r\n\r\n    function unlistNft(uint tokenId) public{\r\n      require(msg.sender == ERC721.ownerOf(tokenId),\"only the owner is allowed to list the new price\");\r\n\r\n      uint tokenIndex = idToTokenIndex[tokenId];\r\n\r\n      allNfts[tokenIndex - 1].isListed=false;\r\n    }\r\n    \r\n\r\n    function testing(uint tokenId)public view returns(uint){\r\n\r\n      uint tokenIndex = idToTokenIndex[tokenId];\r\n\r\n      return(tokenIndex);\r\n\r\n    }\r\n\r\n    function getNftMintingFee()public view returns(uint){\r\n      return mintPrice;\r\n    }\r\n\r\n\r\n    //-------------------------------------------------\r\n\r\n\r\n\r\n}\r\n",
  "sourcePath": "D:\\blockchain projects\\nft101\\nft101\\contracts\\NFT_market.sol",
  "compiler": {
    "name": "solc",
    "version": "0.8.13+commit.abaa5c0e.Emscripten.clang"
  },
  "schemaVersion": "3.4.11",
  "updatedAt": "2023-04-12T01:30:06.844Z",
  "networkType": "ethereum",
  "devdoc": {
    "kind": "dev",
    "methods": {
      "approve(address,uint256)": {
        "details": "See {IERC721-approve}."
      },
      "balanceOf(address)": {
        "details": "See {IERC721-balanceOf}."
      },
      "getApproved(uint256)": {
        "details": "See {IERC721-getApproved}."
      },
      "isApprovedForAll(address,address)": {
        "details": "See {IERC721-isApprovedForAll}."
      },
      "name()": {
        "details": "See {IERC721Metadata-name}."
      },
      "owner()": {
        "details": "Returns the address of the current owner."
      },
      "ownerOf(uint256)": {
        "details": "See {IERC721-ownerOf}."
      },
      "renounceOwnership()": {
        "details": "Leaves the contract without owner. It will not be possible to call `onlyOwner` functions anymore. Can only be called by the current owner. NOTE: Renouncing ownership will leave the contract without an owner, thereby removing any functionality that is only available to the owner."
      },
      "safeTransferFrom(address,address,uint256)": {
        "details": "See {IERC721-safeTransferFrom}."
      },
      "safeTransferFrom(address,address,uint256,bytes)": {
        "details": "See {IERC721-safeTransferFrom}."
      },
      "setApprovalForAll(address,bool)": {
        "details": "See {IERC721-setApprovalForAll}."
      },
      "supportsInterface(bytes4)": {
        "details": "See {IERC165-supportsInterface}."
      },
      "symbol()": {
        "details": "See {IERC721Metadata-symbol}."
      },
      "tokenURI(uint256)": {
        "details": "See {IERC721Metadata-tokenURI}."
      },
      "transferFrom(address,address,uint256)": {
        "details": "See {IERC721-transferFrom}."
      },
      "transferOwnership(address)": {
        "details": "Transfers ownership of the contract to a new account (`newOwner`). Can only be called by the current owner."
      }
    },
    "version": 1
  },
  "userdoc": {
    "kind": "user",
    "methods": {},
    "version": 1
  }
}